:020000040800F2
:100000004805002089010008B71B0008831100087B
:10001000B51B0008B10200087D1D000800000000AB
:10002000000000000000000000000000951C000817
:100030009506000800000000B91B0008991C000884
:10004000A3010008A3010008A3010008A301000800
:10005000A3010008A3010008A3010008A3010008F0
:10006000A3010008A3010008A3010008A3010008E0
:10007000A3010008A3010008A3010008A3010008D0
:10008000A3010008A3010008A3010008A3010008C0
:10009000A3010008A3010008A3010008A3010008B0
:1000A000A3010008A3010008A3010008A3010008A0
:1000B000A3010008A3010008A3010008A301000890
:1000C000A3010008A3010008A3010008A301000880
:1000D000A3010008A3010008A3010008A301000870
:1000E000A3010008A3010008A301000800F002F822
:1000F00000F03AF80AA090E8000C82448344AAF188
:100100000107DA4501D100F02FF8AFF2090EBAE885
:100110000F0013F0010F18BFFB1A43F0010318473B
:10012000142C0000342C0000103A24BF78C878C189
:10013000FAD8520724BF30C830C144BF04680C60ED
:10014000704700000023002400250026103A28BF35
:1001500078C1FBD8520728BF30C148BF0B60704739
:100160001FB51FBD10B510BD00F056F81146FFF7C2
:10017000F7FF01F015FE00F074F803B4FFF7F2FF8B
:1001800003BC00F07BF8000009488047094800479D
:10019000FEE7FEE7FEE7FEE7FEE7FEE7FEE7FEE737
:1001A000FEE7FEE704480549034A054B7047000097
:1001B000FF1C0008ED000008480100204805002051
:1001C000480100204FF0000200B5134694469646C1
:1001D000203922BFA0E80C50A0E80C50B1F120015A
:1001E000BFF4F7AF090728BFA0E80C5048BF0CC008
:1001F0005DF804EB890028BF40F8042B08BF704766
:1002000048BF20F8022B11F0804F18BF00F8012BD7
:100210007047704770477047754600F02BF8AE4640
:1002200005006946534620F00700854618B020B502
:10023000FFF7B8FFBDE820404FF000064FF0000781
:100240004FF000084FF0000B21F00701AC46ACE87E
:10025000C009ACE8C009ACE8C009ACE8C0098D46EB
:10026000704710B50446AFF300802046BDE810404B
:10027000FFF783BF00487047E800002001491820BD
:10028000ABBEFEE7260002007047C24001238B4050
:100290005B1E02EA0300704730B501248C40641EE7
:1002A00005462340AC40A243834042EA030030BDF0
:1002B000FEE70000202865D0412865D0422865D09F
:1002C000432865D0442865D0452865D0462865D0A8
:1002D000472865D0482865D0492865D04A2865D088
:1002E0004B2865D04C2865D04D2865D04E2865D068
:1002F0004F2865D0502865D0512865D0522865D048
:10030000532865D0542865D0552865D0562865D027
:10031000572865D0582865D0592865D05A2865D007
:10032000312865D0322865D0332865D0342865D08F
:10033000352865D0362865D0372865D0382865D06F
:10034000392865D0302865D03F2865D02E2865D063
:100350002C2865D0212865D0402865D03A2865D062
:100360002D2865D02F2865D0282865D0292865D06C
:100370005F2865D0242865D03E2865D03C2865D00C
:100380007E2865D033A0704733A0704733A07047F4
:1003900034A0704735A0704735A0704735A070472E
:1003A00036A0704736A0704737A0704737A0704717
:1003B00038A0704738A0704739A0704739A07047FF
:1003C00039A0704739A070473AA070473BA07047EA
:1003D0003BA070473BA070473BA070473BA07047D5
:1003E0003CA070473CA070473DA070473EA07047BE
:1003F0003FA0704740A0704741A0704742A070479F
:1004000043A0704744A0704745A0704746A070477E
:1004100047A0704748A0704749A070474AA070475E
:100420004BA070474CA070474DA070474EA070473E
:100430004FA0704750A0704751A0704752A070471E
:1004400053A0704754A0704755A0704756A07047FE
:1004500057A07047200000002E2D00002D2E2E2EBC
:10046000000000002D2E2D2E000000002D2E2E004D
:100470002E0000002E2E2D2E000000002D2D2E000F
:100480002E2E2E2E000000002E2E00002E2D2D2DA3
:10049000000000002D2E2D002E2D2E2E000000001D
:1004A0002D2D00002D2E00002D2D2D002E2D2D2E5A
:1004B000000000002D2D2E2D000000002E2D2E00FE
:1004C0002E2E2E002D0000002E2E2D002E2E2E2D35
:1004D000000000002E2D2D002D2E2E2D00000000DE
:1004E0002D2E2D2D000000002D2D2E2E00000000A1
:1004F0002E2D2D2D2D0000002E2E2D2D2D00000037
:100500002E2E2E2D2D0000002E2E2E2E2D00000022
:100510002E2E2E2E2E0000002D2E2E2E2E00000010
:100520002D2D2E2E2E0000002D2D2D2E2E00000004
:100530002D2D2D2D2E0000002D2D2D2D2D000000F8
:100540002E2E2D2D2E2E00002E2D2E2D2E2D000088
:100550002D2D2E2E2D2D00002D2E2D2E2D2D00007B
:100560002E2D2D2E2D2E00002D2D2D2E2E2E000069
:100570002D2E2E2E2E2D00002D2E2E2D2E00000085
:100580002D2E2D2D2E0000002D2E2D2D2E2D000078
:100590002E2D2E2E2E0000002E2E2E2D2E2E2D0036
:1005A0002E2E2E2D2E2D00002E2D2E2D2E00000055
:1005B0002E2E2E2D2E0000002DE9F04100F078F9AE
:1005C000314C06460025D4E90412401A75EB0200AE
:1005D00021D3616804F1180818F80100FFF76AFEDA
:1005E0000246A06863780127115C012B07D02E29F1
:1005F0002CD02D2932D020293DD071B342E0401CAF
:10060000A060105C48B13021711845F10000C4E9C8
:10061000041065702570BDE8F081A56060689021C8
:10062000401C7118606045F10002C4E9041218F81A
:1006300000002B460028ECD1C021711845F10000C4
:100640006360C4E9041011480770E2E730203118F4
:1006500045F10000C4E904100BE012E030462946E1
:1006600002F08CF90A4902F027F902F0B5FAC4E960
:100670000401277006E0C021711845F10000C4E9AB
:10068000041025706770C6E70000002028000020D5
:10069000000010437047000070B5044600F008F9F0
:1006A0000546601C02D004480078044400F000F9BC
:1006B000401BA042FAD370BD740000202DE9F84F12
:1006C000DFF8B891002409F1040A0AF1040B23466B
:1006D0000F270BF1040EC9E00125A5402A40AA42CC
:1006E0007DD1674ED1F804C0ACEB0608B44532D0DA
:1006F00014DCBCF1030F3AD009DCBCF1000F2AD0A6
:10070000BCF1010F1CD0BCF1020F31D11DE0BCF1D6
:10071000110F17D0BCF1120F2AD119E0B8F5881FBC
:1007200019D006DCB8F5803F15D0B8F5801F1FD171
:1007300011E0B8F5001F0ED0B8F5041F18D10AE07B
:10074000CB6815E0CB681B1D12E0CB6808330FE0C7
:10075000CB680C330CE08B682BB1012B4FF00803F6
:1007600003D0456104E0042302E0056100E00023BA
:10077000FF2A01D8064601E000F104064FEA84058D
:1007800001D9A5F12005D6F8008007FA05FC28EA72
:100790000C0803FA05F548EA0508C6F800804D681C
:1007A000ED0062D5374DAE6946F00106AE61AD6928
:1007B00024F0030605F001050095334D06EB050C0A
:1007C000DCF80850A607360F07FA06F825EA0805F0
:1007D000DFF8B880404503D14FF0000817E044E04F
:1007E000DFF8AC80404502D14FF001080FE0DFF8A0
:1007F000A480404502D14FF0020808E0DFF898805D
:10080000404502D14FF0030801E04FF0040808FA18
:1008100006F848EA0508CCF808804D68D9F8006069
:10082000ED034D4601D5164300E096432E604D681A
:10083000DAF80060AD03554601D5164300E0964353
:100840002E604D68DBF80060ED025D4601D5164371
:1008500000E096432E604D68DEF80060AD027546FC
:1008600001D5164300E096432E60641C0D682A46AD
:10087000E5407FF431AFBDE8F88F0000000401408F
:10088000000011100010024000000140000801406B
:10089000000C014000100140001401408068084035
:1008A00000D0012070470AB1016170470904FBE7DD
:1008B00001488068704700007400002070B5040093
:1008C00011D021684CF6CC400860216845F25550A3
:1008D0000860D4E9000141602168A0688860FFF7E2
:1008E000E7FF05460DE0012070BD00BFFFF7E0FF08
:1008F000401B272805D92068C068800701D0032045
:1009000070BD2068C0688007F0D121684AF6AA202F
:100910000860002070BD00684AF6AA21016000202E
:100920007047000002488168027811448160704776
:1009300074000020074810B5016841F01001016003
:10094000032000F05FF80F2000F006F800F024F814
:10095000002010BD0020024070B50D4D04464FF43C
:100960007A712878B1FBF0F00A490968B1FBF0F020
:1009700000F0F3FB48B9102C07D200222146501E8C
:1009800000F020F800206C6070BD012070BD0000F8
:100990007400002080000020094808B5816941F0FA
:1009A00001018161816901F001010091C16941F09A
:1009B0008051C161C06900F08050009008BD000006
:1009C00000100240F0B40E4B1B680C46C3F3022328
:1009D000C3F10705042D00D90425191D072901D2EB
:1009E000002300E0DB1E012606FA05F1491E214026
:1009F00099409E40761E16403143F0BC01F0BFB9CD
:100A00000CED00E0064900F0070208684FF6FF030E
:100A1000184040EA0220034A104308607047000073
:100A20000CED00E00000FA052DE9F0470F46050047
:100A300061D0434E306800F00700B84209D23068F8
:100A400020F0070038433060306800F00700B842FB
:100A500051D128683B4C810712D5400703D5606807
:100A600040F4E06060602878000703D5606840F4D7
:100A7000605060606068A96820F0F0000843606022
:100A80002878C00728D06868012810D0216802287B
:100A900010D0890700292EDA616821F00301014393
:100AA0006160FFF705FF804641F288390DE021685B
:100AB0008903EFE78901EDE7FFF7FAFEA0EB0801F4
:100AC000494502D90320BDE8F0876068696800F0F5
:100AD0000C00B0EB810FEFD1306800F00700B84296
:100AE0000BD9306820F0070038433060306800F0E0
:100AF0000700B84201D00120E5E72878400705D576
:100B00006068E96820F4E0600843606028780007C6
:100B100006D56068296920F4605040EAC100606031
:100B200000F018F86168084AC1F30311515CC8402D
:100B30000649086006480068FFF70EFF0020C2E77C
:100B40000020024000100240242D000880000020F8
:100B50007800002012A185B00FC98DE80F0014A005
:100B6000144A006804905168134801F00C03042BE8
:100B700010D0082B0ED1C1F38343C9031DF8030025
:100B80000AD5516804AAC1F34041515C0A4A504356
:100B9000B0FBF1F005B0704708494843FAE70000A0
:100BA00002030405060708090A0B0C0D0E0F1010AE
:100BB000010200000010024000127A0000093D000E
:100BC0002DE9F84F040070D02078C04DC00749D0FF
:100BD0006868C0F38100012807D06868C0F381000D
:100BE000022809D16868C00306D52868800339D572
:100BF00060680028E7D035E06068B0F5803F0BD032
:100C000010B1B0F5A02F11D0286820F480302860F2
:100C1000286820F4802002E0286840F480302860B2
:100C2000606890B1FFF744FE06460AE0286840F489
:100C300080202860F0E700BFFFF73AFE801B6428A1
:100C400073D828688003F7D50CE0FFF731FE06461D
:100C500005E000BFFFF72CFE801B6428F0D8286851
:100C60008003F7D420789A4E80074FF001094FF0A7
:100C7000000839D5686810F00C0F07D06868C0F319
:100C80008100022809D16868C00306D4286880075B
:100C900014D52069012808D110E02069B0B1C6F848
:100CA0000090FFF705FE074605E00AE1FFF700FEAA
:100CB000C01B0228C4D828688007F7D52868616956
:100CC00020F0F80040EAC10028600DE0C6F800807E
:100CD000FFF7EEFD074604E0FFF7EAFDC01B022820
:100CE00023D828688007F7D4207800072CD57948C6
:100CF000A169D9B1C0F80090FFF7DAFD074604E01A
:100D0000FFF7D6FDC01B02280FD8686A8007F7D509
:100D100071484FF4FA510068B0FBF1F0009000BF49
:100D20000098411E0091FAD20EE080E0C0F80080E9
:100D3000FFF7BEFD074604E0FFF7BAFDC01B02281F
:100D400075D8686A8007F7D42078400760D5E869CD
:100D50000027C00008D4E86940F08050E861E869E5
:100D6000012700F0805000905C480168C90513D449
:100D70000168834641F480710160FFF799FD824666
:100D800006E000BFFFF794FDA0EB0A0064284ED8F0
:100D9000DBF80000C005F5D5E06801280AD008B1ED
:100DA000052813D0286A20F001002862286A20F064
:100DB000040002E0286A40F001002862E06841F285
:100DC000883B98B1FFF774FD82460BE0286A40F03B
:100DD00004002862EEE700BFFFF76AFDA0EB0A01FE
:100DE00059455AD8286A8007F6D50CE0FFF760FD10
:100DF000824605E0FFF75CFDA0EB0A0159454CD89F
:100E0000286A8007F6D41FB1E86920F08050E861B5
:100E1000E06988B36968C1F38101022944D00228DE
:100E2000C6F8608004D0FFF743FD044638E034E0A4
:100E3000FFF73EFD074604E0FFF73AFDC01B02281E
:100E40002BD828688001F7D4206AB0F5803F05D1FF
:100E50006868A16820F4003008436860D4E908019C
:100E60000843696821F4741108436860C6F860900B
:100E7000FFF71EFD044606E025E000BFFFF718FD62
:100E8000001B022809D828688001F7D51BE000BFA5
:100E9000FFF70EFD001B022802D90320BDE8F88FE2
:100EA00028688001F4D40EE00128F7D06868226A2F
:100EB00000F48031914204D1616A00F470108842DC
:100EC00001D00120EAE70020E8E70000001002401E
:100ED0000000424280044242800000200070004036
:100EE00090F85100704770B5040009D0606A002581
:100EF00040B125616561A56294F8510040B10CE0F4
:100F0000012070BD6068B0F5827FF4D0E561F2E742
:100F100084F85050204600F03FF8022084F8510039
:100F20002068016821F040010160A088218900F457
:100F3000827001F404410843A18901F4006108436F
:100F4000217C01F002010843217D01F001010843E9
:100F5000218B01F400710843217F01F0380108431F
:100F600094F8201001F080010843218D01F4005114
:100F7000084321680860A069042101EA1040216843
:100F800048602068C16921F40061C1616565012084
:100F900084F85100002070BD00B585B0002100919B
:100FA00001910291039100680F4988421AD10F48BC
:100FB000816941F480518161816901F4805104911A
:100FC000816941F0040181618069694600F0040093
:100FD0000490A02000900220019003200390044878
:100FE000FFF76CFB05B000BD00300140001002406F
:100FF000000801402DE9F84F044690F85000002702
:101000001D461646894601280DD04FF0010B84F885
:1010100050B0FFF74DFC804694F85100BA460128C5
:1010200004D0022793E00220BDE8F88FB9F1000F49
:1010300073D0002E71D0032084F85100C4F854A05E
:10104000C4F83090A686E686C4F838A0A4F83CA080
:10105000A4F83EA0C4F844A0C4F840A0A068B0F52D
:10106000004F09D12068016821F04001016020682B
:10107000016841F48041016020680168490603D499
:10108000016841F040010160E068B0F5006F606800
:1010900003D030B3012E24D041E008B1012E1CD181
:1010A000206B21680088C86006E020688168890795
:1010B00009D5216B0988C160206B801C2063E08EFC
:1010C000401EE08609E0FFF7F3FBA0EB0800A84212
:1010D00002D3681C01D031E07DB3E08E0028E4D15A
:1010E00020E0206B21680078087306E020688168A2
:1010F000890709D5216B09780173206B401C206397
:10110000E08E401EE0860AE0FFF7D2FBA0EB08006D
:10111000A84203D3681C02D010E017E06DB1E08E46
:101120000028E3D142462946204600F046FD08B19A
:1011300020206065A06818B106E0FFE7032706E0FD
:101140002068C16880680090606D00B1012784F854
:1011500051B084F850A0384666E710B5401EB0F193
:10116000807F01D3012010BD4FF0E02460610F218A
:10117000601700F004FE0020A0610720206100201D
:1011800010BDFEE77FB51E4C05460E460122082124
:101190002046FFF788FB00F037F8002208212046A0
:1011A000FFF781FB00220121164800F0D3FB2846FF
:1011B000314601F0D5F801220DF1040C42F2107510
:1011C000002300928CE82C00042200F089F8012210
:1011D00008212046FFF767FB00F038FC02E0012001
:1011E000FFF75AFA40212046FFF758FB0028F6D0B7
:1011F00004B02046BDE8704000220821FFF753BB31
:101200000008014040787D0110B5094C0023012100
:1012100005202269FFF740F80246206100230221E1
:101220000320FFF739F82061BDE8104000F00EBC44
:101230005C00002070B51748006801F07EF8044695
:101240000D4600F029F808B301F077F802460B4686
:101250002046294600F080FE04460D4600F028F89E
:1012600038B14FF0FF322046294601F015FD044603
:101270000D4600F029F830B101222046294601F040
:101280000BFD04460D462046294670BD0020014650
:1012900070BD000050000020044810B582680A218B
:1012A0000E20FEF7F2FF80B210BD00005C000020AF
:1012B000044810B5826801211820FEF7E6FFC0B28D
:1012C00010BD00005C000020044810B582680121B8
:1012D0001920FEF7DAFFC0B210BD00005C0000204C
:1012E0002DE9FF5F96B0044618980D46042803D9EF
:1012F00003201AB0BDE8F09F1998042801D90420F2
:10130000F7E7249818B1012801D00520F1E7FFF78D
:1013100091FF0022134600F077FF01D10620E8E795
:10132000DFF824A4DAF80060FFF7B6FFB6FBF0F0B0
:1013300025994FF0404651B9DAF80410012906D931
:10134000B0FBF1F201FB120008B11320D1E73246E5
:10135000FE4B2046294601F083F906D33246FC4B6A
:101360002046294601F042F801D20220C1E7259823
:10137000E0B9DAF80400012818D900F0DEFF0246CF
:101380000B462046294600F0E7FD06460F4600F0D2
:10139000A7FF00F0D2FF32463B4601F097F900224A
:1013A000134600F031FF01D00B20A2E722462B4666
:1013B0004FF04040E74900F0CFFD01F0D1FB00F0D5
:1013C000FF0900200B900190DF484FF001084FF01B
:1013D000020B006800F0B1FFCDE90401FFF75CFFEC
:1013E0000746FFF765FF0646FFF76EFF0A9038468F
:1013F00000F0A3FFCDE908010120761CB0FBF6F058
:1014000000F09BFF06460A988A46401C00F095FFB4
:10141000DDE9042301F026F83246534601F022F8B4
:10142000DDE9082300F098FD06460F4600F058FF5E
:1014300014904FF04042C64B2046294601F010F967
:101440000ED207E04FEA48604FEA10680B98401C44
:10145000C0B20B90C84507D8B8F1400FF2D903E0ED
:1014600007204FF080080B90404600F066FFCDE962
:1014700006018046894632463B462046294600F012
:101480006BFD42464B4600F0EDFF82460F9100F0A7
:1014900027FF029000F051FF0891804603902598A5
:1014A000894600287DD0FFF703FA0E90DDE906019A
:1014B000CDE90C0142464B463046394600F0D2FF9A
:1014C000DDE90C2300F048FD22462B4601F00AF925
:1014D000002280468946134600F088FF01D289F039
:1014E00000499D4A9D4B50460F9900F079FC00F051
:1014F000F7FE0299884272D14046494600F0C0FE8C
:1015000091498860269A904201D8029869E04FF08C
:10151000020A1190279840B1FFF7CAF90E99401AB4
:101520002799884201D90D20E3E6DDE906011290F2
:101530000491504600F001FF02460B463046394602
:1015400000F00AFD049B129A00F006FDCDE912019D
:1015500002460B464046494600F0FEFC0022804B06
:1015600000F03EFC00F0BCFE109050452DD802D19A
:10157000A0F10100109000F0E0FEDDE9122300F080
:1015800071FF42464B4601F0A1F800221346CDE917
:10159000040100F02BFF03D2059981F00041059171
:1015A00000E021E0DDE9040100F06AFE66498860A0
:1015B0001199884203D21099D3461190019126992E
:1015C000884202D80899039806E00AF1010ABAF5A0
:1015D000805F9FD3F6E702E081468A4678E0481CA8
:1015E000029000F0AAFEF7E7DDE9060122462B464D
:1015F00000F038FF32463B4600F0AEFC83460F91C8
:1016000000F06EFE02905048406800F096FE88465A
:10161000DDE906210B46414600F09EFC02460B46E2
:101620003046394600F098FC0E900891029800F080
:1016300084FE81468A4602460B4658460F9901F0C1
:1016400051F8089B0E9A00F00DFF0022444B00F069
:10165000C7FB8846DDE906210B46414600F07CFCCD
:10166000CDE90C01DDE906210B4608990E9800F042
:1016700073FC8346089100F033FE8046DDE90C01DF
:1016800000F02EFEB8F1000F06D030B1804504D036
:1016900069D9A8EB0008F5E780465846089900F09C
:1016A0001FFE8346DDE90C0100F01AFE0146BBFB7C
:1016B000F8F0B1FBF8F14FF48052904206D34008A5
:1016C00049089042FBD2814200D1491E83460191D4
:1016D000DDE9060103910890584600F02EFE02460F
:1016E0000B463046394600F037FC80460D91019894
:1016F00000F023FE42460D9B00F0B4FE80460791A9
:101700004A4653463046394600F0ACFE4246079BF7
:1017100000F066FB039B089A00F01EFC22462B4655
:1017200000F0E0FF00220E4B00F05AFB00F0A8FD95
:10173000054D40F6FE71A8600198B8B1ABF102000A
:1017400088421DD30720D4E5500000200B5AF641F3
:101750000B5A76410B5AE64162829EF62901303FD0
:101760000000E03FFFE7A0EB08008BE702984FF690
:10177000F07110384FF0020B884216D30920B8E5FB
:101780000199ABF10100814201D90820B1E502982D
:1017900040F6E9711338884201D30A20A9E56A4965
:1017A0001498884201D90C20A3E5684C0C21032031
:1017B0002268019BFEF770FD2060024610210F2079
:1017C000029BFEF769FD02462060019878B3002372
:1017D00001211F20FEF760FD2060012302211D2052
:1017E0006268FEF759FD02466060002301211F2058
:1017F000FEF752FD6060002301210820A268FEF779
:101800004BFDA0606269002301211820FEF744FD12
:1018100060615B460C2103206268FEF73DFD60605D
:101820004B491498A268884220D901231FE0FFE7A2
:10183000012319461F20FEF72FFD206000230221FF
:101840001D206268FEF728FD0246012360601946EC
:101850001F20FEF721FD6060012319460820A268C1
:10186000FEF71AFDA06001236269CDE70023012184
:101870001F20FEF711FDA0601898E8B3401EC6B205
:101880000123194605202269FEF706FD024633466C
:10189000206102210320FEF7FFFC2061199860B34C
:1018A000401EC3B2022106202269FEF7F5FC024663
:1018B0000123206119460820FEF7EEFC2061024654
:1018C00001210920DDF89030FEF7E6FC2061024698
:1018D000032114200B9BFEF7DFFC206100F0B6F81B
:1018E000A9680020002903DAC843401CA860012031
:1018F0002599E9B1AA6801E004E00DE026998A4241
:1019000018D81EE00023012105202269FEF7C4FC3F
:10191000024600232061BCE7002301210820226940
:10192000FEF7BAFC02460023022120610620CBE725
:10193000A96831B118B1A868C043401CA8600E2046
:10194000D7E40020D5E4000080F0FA025C0000201B
:101950000048E8012DE9F04107463548154688461C
:10196000874201D9022D08D0A8F1010040F2FF31D1
:10197000884204D31020BDE8F0810F20FBE72D48FA
:101980002D493844884201D31120F4E785B12B4911
:10199000012D0AD0022D01D01220ECE701220020F7
:1019A00001F07AF904460E4604E04FF0FF32F6E704
:1019B000224E0024404600F0C0FC02460B46204662
:1019C000314600F0C9FA06460C46384600F0B5FC30
:1019D0003246234600F046FD04460E460022184BD0
:1019E00000F03EFE06D30022164B2046314600F0A2
:1019F000FDFC01D21420BEE71348434600F10C045D
:101A000007600A210E20A268FEF746FC0246A0608D
:101A1000022D09D0012D09D0002302211820FEF744
:101A20003BFCA0600020A6E70223F6E70123F4E7D1
:101A300080C3C901806967FF812B530B0000F03F11
:101A4000B10899418084FE4050000020F8B5184E3E
:101A5000184D0524012256F82410080E8DF80000B8
:101A6000080C8DF80100080A8DF802008DF80310AB
:101A700010212846FEF717FF0120FEF70DFE002279
:101A800010212846FEF70FFF3223042269460A4838
:101A9000FFF7B0FA0848FFF723FA0128FAD101222C
:101AA00010212846FEF7FFFE641ED3D5F8BD0000C6
:101AB0005C00002000080140900000202DE9F0416A
:101AC00086B0002628480096019602960396816902
:101AD00041F010018161816901F010010491816977
:101AE00041F020018161816901F020010491816947
:101AF00041F00401816180691C4F00F004004FF443
:101B000000540490002221463846FEF7CCFEDFF850
:101B10006080002218214046FEF7C5FE0094012493
:101B20000225694638460194CDE90245FEF7C6FD17
:101B300008208DE83100694640460395FEF7BEFD5A
:101B40001020CDE9000469464046CDE90245FEF784
:101B5000B5FD4020CDE90006694640460296FEF7F5
:101B6000ADFD06B0BDE8F08100100240001001405C
:101B7000000801400E4810B50C4901604FF4827115
:101B8000416000218160C1604FF400720161C0E9D1
:101B90000512C1610162416281620A21C162FFF7DF
:101BA000A2F9002801D072B6FEE710BD0030014056
:101BB00090000020FEE7FEE7704738B50B46009224
:101BC00004460022802100F009F8002804D0606D4E
:101BD00040F020006065032038BD00002DE9F84387
:101BE0001E46914688460446089DFEF761FE401B4E
:101BF000351AFEF75DFE074625480068C0F3CB3076
:101C0000684338E0701C37D0FEF752FEC01BA84274
:101C100003D215B1009860B32CE02068416821F030
:101C2000E00141606068B0F5827F0BD1A068B0F53B
:101C3000004F02D0B0F5806F04D12068016821F018
:101C400040010160A06AB0F5005F09D12068016819
:101C500021F4005101602068016841F400510160E5
:101C6000012084F85100002084F850000320BDE8D2
:101C7000F8830025401E00902068816838EA010042
:101C800004D000214945BDD10020F0E70121F9E74A
:101C9000800000207047000010B50348FEF73BFEAF
:101CA000BDE81040FEF73EBE8400002010B590B0A5
:101CB00028216846FEF786FA14210AA8FEF782FA60
:101CC0000A20009001200024CDE906041021CDE96E
:101CD00004016846FEF774FF08B172B6FEE70F20F4
:101CE000CDE90A040C940D9400210AA80E94FEF785
:101CF0009BFE002801D072B6FEE710B010BD704701
:101D00000448A0F10801497800EBC101D1E90001C4
:101D1000FFF738BA3000002010B5FEF74DFC13482D
:101D2000134C01782278914311D000210170427840
:101D3000521CD2B24270042A00D341700B49407841
:101D4000083101EBC001D1E90001FFF71BFA20784F
:101D50004FF4005180F001020648FEF7A4FD2278FE
:101D6000BDE8104008210448FEF79DBD2800002072
:101D7000000000200010014000080140FEE70907B4
:101D8000090E002804DB00F1E02080F80014704701
:101D900000F00F0000F1E02080F8141D70470000F3
:101DA000FEF7C8FDFFF782FFFFF788FE0B480A49E0
:101DB00001600021416040F6FF718160FEF77EFD09
:101DC00008B172B6FEE7FFF7D5FEFFF799FF00BF37
:101DD000FFF7A2FF30BFFBE7003000408400002087
:101DE00010B591EA030F48BF83F0004300F18284ED
:101DF000841A71EB030C05D2121943EB0C03001B80
:101E000061EB0C01DFF824E14FEA1154A4EB135C01
:101E10001EEA430F18BF9EEA445F73D023EA0E0305
:101E2000DCF1200E21EA045143F4801332D322FA6C
:101E30000CFE10EB0E0023FA0CFE41EB0E01CCF170
:101E4000200E03FA0EFE10EB0E0051F10001B1F569
:101E5000801FCCF1200E32D201EB045112FA0EF2A7
:101E6000BDE8104058BF7047401C38BF5FEA4202CF
:101E700018BF7047002814BF20F0010041F1000195
:101E80004FEA410313F5001F38BF7047A1F1C0416D
:101E900000F0E0BB012A43EB0302ACF1200CDCF1C3
:101EA0001F0E32BF4FF0000E23FA0CF310EB0300AD
:101EB00041EB0451B4EB115FD0D0A1EB045101F51B
:101EC000801149085FEA300001EB04510ED350F154
:101ED000000038BF12FA0EFE08D1BDE81040C9E775
:101EE000401C38BF5FEA4202CAD1C3E7BDE81040D8
:101EF0004FEA410313F5001F38BF7047A1F1C041FD
:101F000000F0A8BB9EEA445F08D011EA5E0FBDE86E
:101F1000104004BF01F0004100207047BDE81040B0
:101F200070B500F049FB00BF64FBBE3E0000E0FF5F
:101F300002494FF0000000F07DBE00BF0000F87FB6
:101F4000491058BFC1F140415B1058BFC3F1404335
:101F50008B42EFF3008070472DE9C04130B4DFF8C9
:101F6000A0C23CEA111418BF3CEA131400F0EC8044
:101F700081EA03051CEA111444EAD57418BF1CEA6F
:101F8000131500F0C780A4EB05044FF0004545EAA7
:101F9000C12145EAC32341EA505143EA525304F1B7
:101FA0007F74994204F500344FEAC0204FEAC22200
:101FB00008BF904200F09C804FEA13650FF2401674
:101FC000765D4FEA134506FB05F7C7F1807706FB00
:101FD00007F74FEAD737A7FB03687642C8F5803882
:101FE000A7FB06CE38BFA8F1010807FB08E64FF0B3
:101FF000000EA6FB028CE6FB03CEDCF1000CCEF15A
:10200000004E38BFAEF1010EA6FB0C584FF0000792
:102010004FF00005E6FB0E87A1FB08C6A0FB07CE2C
:1020200016EB0E0645F10005E1FB076515F1E04EE4
:102030007EBFA4F580345FEA46066D4116F1800745
:1020400045F100054FEA17274FEA066647EA05679C
:10205000A6F1DE46B6F1805F4FEA15251FD9384656
:1020600024F0010C05EBC471BCF1FE6F01EB0C1107
:1020700002D8F0BCBDE8008124425CBF01F5801E9F
:102080009EEAC47F02D4F0BCBDE80081244238D46B
:10209000F0BCA1F1C041BDE8004100F0DBBA4FEA5D
:1020A000D22242EA43524FEAD323A7FB02864FEAE9
:1020B000D02040EA415007FB03661EEA0E0F4FEAAC
:1020C000D12105FB026658BFA6EB0056B6EB0056C1
:1020D0004FEA520E4EEAC37E18EB0E0E56EB530E2D
:1020E000BDD518EB02085E417F1C55F10005B6E72F
:1020F0004FF480154FF000074FF000064FF0000836
:10210000ADE7F0BC4FF0000001F1C04101F000412B
:10211000BDE8008111EA0C1F0CEA131500D00CE099
:1021200013EA0C1F00F025804FF00000F0BC81EA9C
:10213000030101F00041BDE80081F0BCBDE80041B1
:1021400081EA030100F086BAF0BCBDE8004170B539
:1021500000F032FA097EFC3E00F007B881EA030184
:102160004FF0000001F00041704781EA030100F0E8
:1021700071BAF0BCBDE800414FF000002149704742
:10218000FFFDFBF9F7F5F4F2F0EEEDEBE9E8E6E43C
:10219000E3E1E0DEDDDBDAD8D7D5D4D3D1D0CFCDC3
:1021A000CCCBCAC8C7C6C5C4C2C1C0BFBEBDBCBBFC
:1021B000BAB9B8B7B6B5B4B3B2B1B0AFAEADACABF7
:1021C000AAA9A8A8A7A6A5A4A3A3A2A1A09F9F9ED1
:1021D0009D9C9C9B9A999998979796959594939383
:1021E000929191908F8F8E8E8D8C8C8B8B8A89891A
:1021F000888887878685858484838382828181809D
:102200000000FF070000F87F51EA030C17D41CF50B
:10221000801F58BFBCF5801F00F10680994218BF8F
:10222000704708BF9042704707D711F5801F58BF0D
:1022300013F5801F19D499427047894270471CF5E5
:10224000801F08D5BCF5801FF7D58B4218BF70479B
:1022500008BF824270474FF4001C1CEB410F38BF8F
:102260001CEB430F01D28B42704770B500F0A4F90C
:10227000922449004FF000514FF08053FFF760BEA9
:102280004FEA41034FEA5353A3F58063D3F11E0392
:10229000C8BFD3F1210C0CDD4FF0004242EAC1224D
:1022A00042EA505232FA03FC8CEAE17CACEBE1707A
:1022B0007047102BC4BF0020704703F5787CBCF139
:1022C000FF3F04D06FF0004282EA2100704770B5F2
:1022D00000F072F94992248000207047F2E7000074
:1022E0004FEA1153A3F58063D3F11E03A8BFD3F1C6
:1022F000200C08DB4FF0004242EAC12252EA505261
:1023000032FA03F0704709420BD4102BC4BF0020EF
:10231000704703F5787CBCF1FF3F05D04FF0FF30EC
:1023200070474FF00000704770B500F045F900BFEE
:102330004992248000207047F0E7B0FA80F310FA49
:1023400003F10AD0C3F11D0303F580634FEA415046
:102350004FEA035202EBD12170474FF00000704763
:10236000B1FA81F30B3B20D3994010D1B0FA80F33E
:1023700010FA03F108BF7047C3F11D0303F5806332
:102380004FEAD1224FEA415002EB03517047C3F1AB
:10239000200C20FA0CFC9840C3F1320303F5806353
:1023A00041EA0C0101EB0351704710B5C3F1000481
:1023B000C3F1320CC4F1200E0CF5806201FA0EFC60
:1023C00021FA04F100FA0EF3E040BDE8104040EAC3
:1023D0000C0001EB025138BF7047401C41F1000175
:1023E0005B0008BF20F001007047000051EA030CB9
:1023F00017D41CF5801F58BFBCF5801F00F1068064
:10240000994218BF704708BF9042704707D711F52F
:10241000801F58BF13F5801F19D499427047894215
:1024200070471CF5801F08D5BCF5801FF7D58B427F
:1024300018BF704708BF824270474FF4001C1CEB66
:10244000410F38BF1CEB430F01D28B42704770B570
:1024500000F0B2F8922449004FF000514FF0805341
:10246000FFF76EBDDFF848C170B51CEA111E1EBF34
:102470001CEA13159EEA0C0F95EA0C0F00F06F8012
:1024800081EA030423EA4C134EEAD47E21EA4C117C
:1024900041F4801143F48013AE44A1FB024CA0FB35
:1024A0000365AEF17F7E361955EB0C05A1FB034C9D
:1024B0004CF10003A0FB021C16EB0C06654153F126
:1024C0000003094218BF46F0010613F4007F0BD148
:1024D0004FEA03314FEA0530340341EA155140EA2F
:1024E00016506FF003020AE04FEAC3214FEAC520FD
:1024F000F40241EA555140EA56506FF0020202EBF5
:102500002E4201EB025585EACE710AD05FEA440CF7
:1025100018BF24F0004450F1000041F1000120EA0E
:10252000D47040F2FE7C624500D270BDA84214BF58
:102530004FF080444FF04044002E08BF0024BEF10D
:10254000806FA8BFA1F1C041BDE8704080F28280D9
:102550004FF0000001F1C04101F0004170479EEAD8
:102560000C0F0CEA131518BF95EA0C0F06D04FF0AC
:10257000000081EA030E0EF0004170BD00F01CF86F
:102580008900013E00F007B800F009B84FEA430C9B
:102590005FEA5C5C08D081EA030100F05BB84FEAB7
:1025A000410C5FEA5C5CF6D14FF0000001497047D6
:1025B0000000FF070000F87F0EF1020E2EF0030E60
:1025C0005EF8046B364205D4012A43EB030515F58A
:1025D000001F12D8012841EB010C1CF5001F0CD87C
:1025E0000ED14FEAD17C15F5001F0CEB4C0C0CF111
:1025F000020C08BF4CEBD37C04E04FF0080C01E068
:102600004FEAD37C0CEB4C0526FA05F606F00706DC
:10261000B6F1040C06D20EEB860CBDE870404CF00F
:10262000010C6047DFE80CF0090B02024FF000419B
:102630004FF00000A1F5002170BD19461046012899
:1026400051EB010418BFD4F5001484BF002001F041
:10265000004170BD0808A0F500114FEA3101704734
:1026600053EA010C17D41CF5801F58BFBCF5801F1E
:1026700000F106808B4218BF704708BF8242704746
:1026800007D713F5801F58BF11F5801F19D48B424F
:1026900070479B4270471CF5801F08D5BCF5801F12
:1026A000F7D5994218BF704708BF904270474FF462
:1026B000001C1CEB430F38BF1CEB410F01D29942A9
:1026C00070470FB40CBC03BCFFF7C1BE91EA030F07
:1026D00010B581F000413FF58BAB83F0004300F073
:1026E00009B8000010B591EA030F48BF83F000431A
:1026F0003FF57EAB841A71EB030C07D212198CF0F4
:10270000004C43EB0C03001B61EB0C01DFF8A4E170
:102710004FEA1154A4EB135C1EEA430F18BF9EEA64
:10272000445F00F0B08023EA6E03524221EA045174
:10273000C3EB6E0338BF5B1EDCF1200E25D322FAFB
:102740000CFE10EB0E0043FA0CFE41EB0E01CCF137
:10275000200E03FA0EFE10EB0E0051F10001CCF139
:10276000200E29D412FA0EF201EB0451BDE81040FC
:1027700058BF7047401C1CBFB2F1004F7047002883
:102780000CBF491C20F00100704712EB020E43EB16
:10279000030218BF4FF0010E4EEA4202ACF1200CCA
:1027A000DCF11E0E54D943FA0CFE10EB0E0051F171
:1027B000FF31CCF11E0ED5D50EF1010E12FA0EFE30
:1027C000404141EB010101EB445C5FEA5C5C10D9E4
:1027D00010EBDE7001EB045138BFBEF1004FBDE8D5
:1027E000104018BF704700280CBF491C20F00100A2
:1027F000704730D24FEAD42C11F5001124F4006454
:102800001BD0B1FA81F20B3AA41AA41ED2F1200314
:10281000914030FA03F31943904001EBCC71002C46
:1028200001EB0451BDE81040A8BF704701F1C04161
:102830004FF0000001F000417047B0FA80F310FA49
:1028400003F100D110BDE41A173C4805C90AE4E7BA
:1028500001EB045110BD491001EB0451BDE81040DB
:102860004FEA300002E04FF0000170474A0008BF15
:102870000042F8D0B2F5001F28BF704701F00041B8
:102880004FF0000070479EEA445F07D011EA5E0FE8
:10289000BDE8104004BF002100207047BDE8104093
:1028A00070B5FFF789FE00BF40DFF63E83F00041C0
:1028B000104670470000E0FF90EA010F48BF81F02A
:1028C000004100F1DE80421A3CBF801A89184FEAAD
:1028D000D0524FF07F4C1CEA410FA2EBD15318BFEE
:1028E0009CEA026F00F03B804FF0004C4CEA002065
:1028F0004CEA012121FA03FC10EB0C0C1ED202F170
:10290000FF325FEA1C2040EBC25038BF70471CF01A
:102910007F0F4FEA400C18BFBCF17F4F38BF7047A4
:10292000C3F12003994008BF20F00100BCF17F4FA4
:1029300038BF7047A0F1C04000F096B84FEA3C00A5
:10294000000A40EBC25028BF1CF0FF0F4FEA400CBA
:10295000E6D018BFBCF17F4F38BF7047EAE79CEA6A
:10296000026F05D010EA5C0F08BF00F0004070470E
:1029700010B500F033F800BF64FBBE3E4FF07E524E
:1029800009E011F0004204D54042C1F1000138BF16
:10299000491E42F07E520B0002F1706212BF2023EA
:1029A0005FEA00017047B1FA81FCA3EB0C0301FA66
:1029B0000CF120FA03FC02EBC352C3F1200341EAFD
:1029C0000C0110FA03FC5CEA416C42EB112018BFC9
:1029D0005FF0806C28BF20F0010070470EF1020EFE
:1029E0002EF0030E5EF8044B244204D44FEA410259
:1029F000B2F17F4F11D84FEA4003B3F17F4F0CD8AB
:102A00000ED14FEAD07CB2F17F4F0CEB4C0C0CF1A5
:102A1000020C08BF4CEBD17C04E04FF0080C01E045
:102A20004FEAD17C0CEB4C0324FA03F404F00704C6
:102A3000B4F1040C06D20EEB840CBDE810404CF04F
:102A4000010C6047DFE80CF0070802024FF000407D
:102A5000A0F5800010BD0846420018BFD2F1807278
:102A600088BF00F0004010BDFF2141EAD050C005F2
:102A70007047000090EA010F48BF81F000413FF528
:102A800022AF421A04D882F00042A0EB02001144A7
:102A90004FEAD0524FF07F4C1CEA410FA2EBD153CA
:102AA00018BF9CEA026F4AD04FF0004C4CEA00205D
:102AB0004CEA012121FA03FCB0EB0C0C0FD412F00C
:102AC000FE0F36D05FEA4C001DD5001240EBC2501D
:102AD00038BF70471CF03F0F18BF70470BE0A2F1E2
:102AE00001025FEA1C2040EBC25038BF70471CF067
:102AF0007F0F18BF7047C3F12003994014BF401ED9
:102B000020F00100704780084FEA122308BF704789
:102B1000B0FA80FCA2EB0C02CCF1280C60FA0CF0AD
:102B200093EA122F04BF00EBC25070474FEAC37004
:102B30007047130A5FEADC1008BF7047F6E79CEAAB
:102B4000026F04D010EA5C0F08BF0020704710B578
:102B5000FFF744FF40DFF63E81F000407047000081
:102B60004FEAC1230A1543EA50534FEAC02C18BF5D
:102B700043F000431BD4A2F24E02D2F57C72C0F2A5
:102B80002080502AA8BF502223FA02F12CFA02F02A
:102B900060B4D2F1200284BF03FA02F52843C2F1E7
:102BA00000029CBF23FA02F5284360BC704701F184
:102BB000804212F5801F04DA4FF000004FF0000150
:102BC000704770B5FFF7F8FC49922480002001E0BF
:102BD0006FEAE17001467047C2154FEA002318BF43
:102BE00043F000430ED4D2F1BE0215D323FA02F112
:102BF000B2F1200C2EBF23FA0CF0C2F1200C03FA24
:102C00000CF070474FEA400CBCF1FE4F04D24FF07D
:102C100000004FF00001704710B5FFF7DFFE00BF66
:102C20009224498000204FF0000170476FEAE07065
:102C3000014670470CF00F03092B08BF082000F075
:102C400059800A2B0BD0082B18BF704708BF1CF007
:102C5000400F0AD04FF000004FF0000170471CF009
:102C6000400F18BF4FF0004070471CF0100F08D005
:102C700020F0704300F07F4242EAD3014FEA4370F4
:102C8000704700F0604021F07F4242EA000201F00C
:102C90007F4040EA727070474FF0FF0C4CF4E06CDC
:102CA0001CEA11531CBF9CEA030C9445C2BFDA42D4
:102CB00001EB02517047002B0DD0BCF1000F0FD07B
:102CC000002A01F00041A4BF41F0E04141F07F61E2
:102CD0004FF00000704701F000414FF000007047D6
:102CE00050EA01334FF09B0C18BF4CF0806C7FF41E
:102CF0001FA970471CF4801F11D01CF4E02F03D0D3
:102D00006FEACC31490070474FF04050EFF300823A
:102D100022F0704242EA000282F3008870474FF0CE
:102D200000007047000000000000000001020304E2
:102D300006070809542D0008000000208400000048
:102D400028010008D82D000884000020C4040000D9
:102D50004401000800000000000000000000000026
:102D6000000000000000000000000000435120436C
:102D70005120424541434F4E2037330000000000B0
:102D8000000000003C109C0800000000D0A9C619FB
:102D900000000000A01F4D4D0000000018486057C3
:102DA0000100000080969800A0860100000000004D
:102DB00000007D00F9FF0020426E00180B000000AB
:102DC0003CB28061050040000100000010000000DE
:082DD000000000000024F400E3
:04000005080000ED02
:00000001FF
