:020000040800F2
:100000001005002089010008E51A000831100008D9
:10001000E11A00088D020008511D000800000000D0
:10002000000000000000000000000000D11B0008DC
:100030009D03000800000000E91A0008D51B000815
:10004000A3010008A3010008A3010008A301000800
:10005000A3010008A3010008A3010008A3010008F0
:10006000A3010008A3010008A3010008A3010008E0
:10007000A3010008A3010008A3010008A3010008D0
:10008000A3010008A3010008A3010008A3010008C0
:10009000A3010008A3010008A3010008A3010008B0
:1000A000A3010008A3010008A3010008A3010008A0
:1000B000A3010008A3010008A3010008A301000890
:1000C000A3010008A3010008A3010008A301000880
:1000D000A3010008A3010008A3010008A301000870
:1000E000A3010008A3010008A301000800F002F822
:1000F00000F03AF80AA090E8000C82448344AAF188
:100100000107DA4501D100F02FF8AFF2090EBAE885
:100110000F0013F0010F18BFFB1A43F0010318473B
:100120008C2E0000AC2E0000103A24BF78C878C195
:10013000FAD8520724BF30C830C144BF04680C60ED
:10014000704700000023002400250026103A28BF35
:1001500078C1FBD8520728BF30C148BF0B60704739
:100160001FB51FBD10B510BD00F056F81146FFF7C2
:10017000F7FF01F0EFFD00F074F803B4FFF7F2FFB2
:1001800003BC00F07BF8000009488047094800479D
:10019000FEE7FEE7FEE7FEE7FEE7FEE7FEE7FEE737
:1001A000FEE7FEE704480549034A054B7047000097
:1001B000ED1B0008ED0000081001002010050020D4
:1001C000100100204FF0000200B5134694469646F9
:1001D000203922BFA0E80C50A0E80C50B1F120015A
:1001E000BFF4F7AF090728BFA0E80C5048BF0CC008
:1001F0005DF804EB890028BF40F8042B08BF704766
:1002000048BF20F8022B11F0804F18BF00F8012BD7
:100210007047704770477047754600F02BF8AE4640
:1002200005006946534620F00700854618B020B502
:10023000FFF7B8FFBDE820404FF000064FF0000781
:100240004FF000084FF0000BAC46ACE8C009ACE83A
:10025000C009ACE8C009ACE8C00921F007018D462F
:10026000704710B50446AFF300802046BDE810404B
:10027000FFF783BF0048704728000020014918207D
:10028000ABBEFEE72600020070470000FEE700005C
:10029000B0B500F0B3F940F28805C2F20005D5E927
:1002A0000412411A4FF00001914138BFB0BD696896
:1002B00036A2525C213AD2B25D2A17D842F65C537C
:1002C000C0F6000353F822206C78AB68012C15D0DF
:1002D000D15C2C291EDC002946D0202953D1C03006
:1002E0004FF0000242F100014AE000BF42F61072F6
:1002F000C0F600026C78AB68012CE9D10133AB6029
:10030000D25C8AB130304FF0000141F10001C5E903
:10031000040125E02D2929D02E2934D130304FF089
:10032000000141F100012AE00022013110F19003A7
:1003300042F100040F29C5E90112C5E904340FD1C7
:10034000C03042F10001C5E9040140F2A000C2F250
:10035000000001216A60017000202880B0BD00BF4C
:1003600000202880B0BD00BF00220BE002F0B6FBE9
:100370000021C4F2103102F025FB02F0BFFC012283
:10038000C5E904012A7001206870B0BD43512043C3
:100390005120424541434F4E203733007047000003
:1003A000B0B5044600F02AF9054640F21800C2F242
:1003B00000000078611C18BF044400BF00F01EF963
:1003C000401BA042FAD3B0BD2DE9F04F82B00E68B9
:1003D000002E00F0038140F20C4C41F200424FF637
:1003E000FF7EC4F2010CC4F20102042700240123A1
:1003F000C1F2100E4FF0000A4FF00009904208BF02
:100400000327009745E000BF012704F00C030F22EB
:100410009A402BEA020207FA03F34FEA9A051A43BD
:1004200046F82520D1F804B040F20045C4F2010599
:100430005FEACB322A6854BF22EA080242EA080285
:100440002A606A685FEA8B3354BF22EA080242EAF4
:1004500008026A605FEACB23AA6854BF22EA080256
:1004600042EA08025FEA8B23AA60DCF800204FF022
:10047000010354BF22EA080242EA0802CCF8002035
:100480000E680AF1010A36FA0AF204F1040400F0D7
:10049000A58003FA0AF816EA080FF1D04E687645EF
:1004A00012DC122E56D8DFE806F0350B45495555BB
:1004B00055555555555555555555554D510000BF38
:1004C000D1F80C9046E000BF4FF6FF72C1F2210256
:1004D00096420FDC0022C1F2110296421AD000228D
:1004E000C1F21202964215D00022C1F221029642B8
:1004F00010D02FE00022C1F2220296420AD0002240
:10050000C1F23102964205D00022C1F23202964277
:1005100020D100BF8A684AB1012A14BFC0F81480F4
:10052000C0F810804FF0080914E000BF4FF0040934
:1005300010E000BFCA6802F108090BE04FF00009A3
:1005400008E000BFCA6802F1040903E0CA6802F1CA
:100550000C0900BF22460646BAF1080F24BF203A14
:10056000043637680F25954027EA050509FA02F297
:100570002A433260CA79D2067FF582AF41F218036E
:10058000C4F202031A6842F001021A601A6802F00B
:1005900001020192019A40F20042C4F20102A2F566
:1005A0007E762AF0030256F802B040F60002C4F24A
:1005B0000102904210D040F60042C4F20102904283
:1005C0003FF422AF41F20002C4F20102009F9042C8
:1005D00008BF022719E700BF002716E702B0BDE8F1
:1005E000F08F00008068084018BF012070470000AD
:1005F000002A08BF090401617047000040F20C1096
:10060000C2F2000000687047B0B538B30446006815
:10061000D4E901124CF6CC43036045F25553036014
:1006200041608260FFF7EAFF2168CA6892070FD035
:10063000054602E0C86880070AD0FFF7DFFF401BCD
:1006400021682828F6D3C8688007F3D00320B0BDFE
:100650004AF6AA2008600020B0BD00BF0120B0BD4E
:1006600001684AF6AA2200200A60704740F218008A
:1006700040F20C11C2F20000C2F2000100780A68D8
:10068000104408607047000080B542F20000C4F2D8
:100690000200016841F010010160032000F072F8CF
:1006A0000F2000F005F800F027F8002080BD0000C2
:1006B00070B540F21806C2F2000640F2200132780E
:1006C000C2F200014FF47A730968B3FBF2F20446F8
:1006D000B1FBF2F1084600F095FC0F2C4FF001053C
:1006E00008D838B94FF0FF3021460022002500F02D
:1006F0001DF87460284670BD82B041F21800C4F243
:100700000200016841F001010160016801F001018E
:1007100001910199416841F080514160406800F0C9
:1007200080500090009802B07047000010B54EF65F
:100730000C5CCEF2000CDCF80030C3F3022E8EF01D
:100740000704042C28BF0424BEF103034FF0FF3E2E
:100750000EFA04F438BF0023A14399400EFA03F3C4
:100760009A43114300F00F0200F160430901043A7B
:1007700003F564436244002848BF02F10C0319707A
:1007800010BD00004EF60C51CEF200010A684FF683
:10079000FF031A4060F30A2242F0806040F0FD70CF
:1007A000086070472DE9F04381B0002800F0858093
:1007B00042F20008C4F202080446D8F800000D46D0
:1007C00000F0070088420CD2D8F8000020F00700A3
:1007D0002843C8F80000D8F8000000F00700A8423D
:1007E0006BD1206841F204098107C4F2020917D5D0
:1007F000410705D5D9F8001041F4E061C9F80010AF
:10080000010705D5D9F8001041F46051C9F800106E
:10081000D9F80010A26821F0F0011143C9F80010C6
:10082000C00741D1D8F8000000F00700A8420CD959
:10083000D8F8000020F007002843C8F80000D8F8D6
:10084000000000F00700A84237D12068410707D513
:10085000D9F80010E26821F4E0611143C9F80010F2
:10086000000708D5D9F80000216920F4605040EA5B
:10087000C100C9F80000D9F8002002F00C000828D7
:1008800041F20020C0F27A0050D142F60073C2F368
:100890008341C0F60003595CD2033BD440F60010FC
:1008A000C0F23D00484341E0606802280AD00128B8
:1008B0002AD159F8041C890308D4012001B0BDE8ED
:1008C000F08300BF59F8041C8901F6D5D9F800104F
:1008D00021F003010843C9F80000FFF78FFE064628
:1008E00041F28837D9F80000616800F00C00B0EBE5
:1008F000810F97D0FFF782FE801BB842F2D9032008
:1009000001B0BDE8F08300BF59F8041C8907D4D5B5
:10091000DCE700BFD9F8002042F65853C2F340424A
:10092000C0F600039A5C4843B0FBF2F0D9F800101F
:1009300042F6D462C1F30311C0F60002515C40F2EA
:10094000200220FA01F140F21C00C2F2000000680F
:10095000C2F200021160FFF7ABFE002001B0BDE85B
:10096000F08300002DE9F04182B0002868D00446F1
:10097000007841F20006C007C4F2020625D0706874
:1009800000F00C0004281BD0706800F00C00082850
:1009900002D17068C00313D46068002800F0688139
:1009A000B0F5A02F00F07C81B0F5803F00F07C8195
:1009B000306820F480303060306820F4802076E1A8
:1009C0003068800301D56068D0B32078800718D5DF
:1009D000706810F00C0F07D0706800F00C00082849
:1009E0006ED17068C0036BD43068800702D520696F
:1009F000012825D13068616920F0F80040EAC10083
:100A00003060207800071FD42078400732D4E56991
:100A100095B1706800F00C00082840F08F80012D1F
:100A20000ED07068216A00F480328A4208D1616A6F
:100A300000F47010884203D1002002B0BDE8F081BC
:100A4000012002B0BDE8F081A069002862D000203A
:100A5000C4F242200121C0F88014FFF7CFFD054603
:100A6000706A800700F18C80FFF7C8FD401B0228E8
:100A7000F6D92AE1F06910F0805808D1F06940F009
:100A80008050F061F06900F080500090009847F2CB
:100A90000007C4F200073868C00529D4386840F45C
:100AA00080703860FFF7AAFD054600BF3868C005B2
:100AB0001ED4FFF7A3FD401B6428F7D905E100BF52
:100AC0002069002840F20000C4F2422000F0828039
:100AD00001210160FFF792FD054600BF30688007E5
:100AE0003FF588AFFFF78AFD401B0228F6D9ECE0FE
:100AF000E068002800F08080052800F09780012839
:100B000000F09880306A20F001003062306A20F0F6
:100B1000040092E00020C4F242200021C0F88014BA
:100B2000FFF76CFD054600BF706A80077FF56CAF6C
:100B3000FFF764FD401B0228F6D9C6E00027C4F287
:100B4000422700203866FFF759FD022D05460BD1DC
:100B50003068800140F1BE80FFF750FD401B022845
:100B60004FF00300F4D968E7306880017FF564AF87
:100B7000FFF744FD401B02284FF00300F4D95CE767
:100B800040F22000C2F20000006844F6D351C1F2E6
:100B90006201A0FB0101480A019000BF00BF01985B
:100BA000411E002801913FF42FAF00BF0198411E64
:100BB000002801913FF428AF00BF0198411E002892
:100BC00001913FF421AF00BF0198411E002801911F
:100BD000E4D119E700210160FFF710FD054600BFD1
:100BE000306880077FF50DAFFFF708FD401B022836
:100BF0004FF00300F4D920E7306A20F001003062A2
:100C0000306A20F004003062FFF7F8FC054641F23C
:100C1000883700BF306A800720D5FFF7EFFC401B04
:100C2000B8424FF00300F5D907E700BF306A40F043
:100C300004003062306A40F001003062FFF7DEFCF1
:100C4000054641F2883700BF306A800706D4FFF7B7
:100C5000D5FC401BB842F7D937E000BFB8F1000F10
:100C60007FF4D5AEF06920F08050F061CFE600BF90
:100C7000306820F480303060306820F480203060AC
:100C8000FFF7BCFC054600BF306880037FF59DAED2
:100C9000FFF7B4FC401B64284FF00300F4D9CCE606
:100CA000306840F480203060306840F4803030603C
:100CB000FFF7A4FC054600BF306880033FF585AE12
:100CC000FFF79CFC401B6428F6D9032002B0BDE866
:100CD000F08100BF206AB0F5803F05D17168A2683D
:100CE00021F40031114371607168626A21F474115A
:100CF00011430843706001203866FFF77FFC04460B
:100D0000306880013FF598AEFFF778FC001B0228A1
:100D10004FF00300F4D990E690F8510070470000BE
:100D200070B538B10446406A30B10020206104F14A
:100D3000140007E0012070BD6068B0F5827F03D029
:100D400004F11C00002101600026A66294F8510005
:100D500020B9204684F8506000F038F8022084F86A
:100D6000510094E8071001F48271036802F4044210
:100D700023F040030360236911440CF40062114422
:100D800003F002026369114403F00102A369E569FB
:100D9000114403F40072114405F03802256A11442D
:100DA00005F08002A56A114305F400521143016069
:100DB000042101EA13414160C16921F40061C1616C
:100DC0000120666584F85100304670BD80B586B05C
:100DD000014640F60000C4F20100096800F5205306
:100DE00000229942049201D006B080BD41F2180160
:100DF000C4F202010A6842F480520A600A6802F4EE
:100E000080520192019A0A6842F004020A6009685D
:100E100001F0040101910199A021029102210391A5
:100E20000321059102A9FFF7CFFA06B080BD0000AB
:100E30002DE9F04381B0044690F85000012803D119
:100E4000022001B0BDE8F0834FF001091D461646AF
:100E50000F4684F85090FFF7D1FB94F85110012908
:100E600044D18046002F4FF0010018BF002E00F043
:100E7000C0800320002184F8510061652763A686A5
:100E8000E686A163A187E187A0682164B0F5004FE1
:100E90002068616407D1016821F0400101600168A8
:100EA00041F4804101600168490603D4016841F0C2
:100EB000400101606168731EE268B1FA81F1B3FA22
:100EC00083F349095B09B2F5006F41EA03013BD1A5
:100ED00031B137F8021BC1602763E08E0138E0862C
:100EE000E08E00286AD0681C0DD11CE0022080E052
:100EF000216B31F8022BC2602163E08E0138E0865D
:100F0000E08E00285AD0206881688907F0D4FFF766
:100F100075FBA0EB0800A842F2D338E0FFF76EFBA8
:100F2000E08E00284AD0206881688907F6D5216BB9
:100F300031F8022BC2602163E08E0138E086E08E3A
:100F40000028F0D13AE000BF39B139780173206B45
:100F500001302063E08E0138E086E08E70B3681CBB
:100F60000BD11BE0216B09780173206B01302063EA
:100F7000E08E0138E086E08E00B320688168890742
:100F8000F0D4FFF73BFBA0EB0800A842F3D303200B
:100F90002FE000BFFFF732FBE08E78B12068816858
:100FA0008907F7D5216B09780173206B0130206325
:100FB000E08E0138E086E08E0028EFD120468021C7
:100FC0002A46434600F092FD28B1606D40F02000B3
:100FD000606520206065A06838B900200090206816
:100FE000C1680091806800900098606D002818BF6B
:100FF0000120002184F8519084F8501001B0BDE820
:10100000F0830000411E0020B0EB116F1CBF0120D7
:1010100070474EF21002CEF2000251604EF623519C
:10102000CEF20001F0230B70072190601160704731
:10103000FEE700002DE9F04385B040F60004C4F25D
:1010400001040D4606462046082101224FF0010802
:10105000FFF7CEFA40F20007C2F20007F86820F06E
:101060003800F86000F058FC2046082100224FF0BC
:101070000009FFF7BDFAB9684EF20010C0F2F55052
:1010800068F399317861B9603046294601F0F0F98A
:1010900042F2107704220023CDE90088CDF80890B1
:1010A000039700F023F8204608210122FFF7A0FA59
:1010B00000F032FC20464021FFF794FA70B9002579
:1010C00040F2CF760120FFF76BF920464021FFF771
:1010D00089FA18B9B54205F10105F3D32046082174
:1010E000002205B0BDE8F043FFF782BA2DE9F04FCA
:1010F00093B0042A06D94FF00308404613B0BDE868
:10110000F08F00BF042B05D94FF00408404613B000
:10111000BDE8F08F1C9F012F06D94FF0050840460F
:1011200013B0BDE8F08F00BF40F20007C2F2000725
:10113000BE68C6F38938B8F1000F38D0CDE9110187
:101140007869CDE90B23109001F07EF90446404602
:101150000D4601F079F98B460246204629465B464A
:101160000E940D950F9200F065FF0023C3F6E07317
:10117000002204460D4606F0807901F037FA074652
:101180008A46B9F1000F04BF2746AA4638465146A1
:101190003A46534606F0007400F098FE0022002301
:1011A000002C04BF3846514601F06EFC30B14FF0C0
:1011B0000608404613B0BDE8F08F00BFDA46DDF800
:1011C00074B010980F9FB146BBF1000F74D0119D01
:1011D000129C45F60B23C4F2F613284621464FF025
:1011E000404201F05FFC00284FF002087FF485AF19
:1011F00045F60B23C4F27613284621464FF04042B1
:1012000001F065FC00287FF478AFC9F3406001303D
:10121000D846C9F3006601F000F9DDE90D3201F0AE
:10122000E5F90446701C0D4601F00EF90022002E6F
:101230001CBF104611462246129C2B46119D01F000
:10124000D5F93A46534600F0F5FE81468A4601F04C
:10125000B7F845F60B230290C4F2761328462146D0
:101260004FF0404201F02CFC002879D145F60B21CB
:10127000C4F2E6114FF040402A46234600F0DAFE61
:1012800001F000FDC0B2C34600286FD0022871D320
:10129000042873D3082875D3102877D3202879D34E
:1012A00040263F284FF4C00088BF6FF07F0688BFFC
:1012B0004FF4E00071E000BFB0FBF8F04EF21D61AA
:1012C000C0F6CB3148434FEA70104AF2C671DDE9EF
:1012D0001154884206D34FF01308404613B0BDE8BE
:1012E000F08F00BF45F60B23C4F2F61328462146C3
:1012F0004FF0404201F0D6FB00284FF002087FF487
:10130000FCAE45F60B23C4F27613284621464FF077
:10131000404201F0DCFB00287FF4EFAE46F60023EC
:10132000C4F2F80328462146002200F083FE04465A
:101330000D4601F045F801F087F802460B462046BD
:10134000294601F051FA0022002301F09DFB0028FC
:101350007FF45BAF4FF00B08404613B0BDE8F08F51
:10136000C34680264FF4E00017E000BF01260020AE
:1013700013E000BF02264FF480100EE004264FF465
:1013800000100AE008264FF4401006E010264FF443
:10139000800002E020264FF4A0000190284621465C
:1013A0004A46534600F046FE0446F0B2CDF840A04F
:1013B0000D4601F049F80F460246204629463B46B5
:1013C000144601F013F90646884600F0F9FFBBF118
:1013D000000FCDF83C90059400F0BA80824601F0F1
:1013E00033F84D4681468B46FFF708F91099049073
:1013F00028464A465B46CDF82890CDF824B001F047
:10140000F5F822463B460D9700F014FEDDE9112366
:1014100001F0EAF90022002381460F4601F057FB54
:1014200048F2622240F229130028CFF29E62C3F6EE
:1014300030733046414618BF87F0004700F046FD44
:1014400000F0BEFF504540F0078148463946A046AF
:1014500000F086FF01461E98CDF80CA0814240F2B4
:101460000810C2F20000016040F2FF8006A81F9E33
:1014700080E8820200250224022708E00E9F5546DC
:1014800001341F9ED846B4F5805F00F0F08036B17D
:10149000FFF7B4F80499401AB04200F29181204657
:1014A000AA460E9700F0D0FF02460B46DDE90F0179
:1014B00000F0C0FD0D9B4246C34600F0BBFD089DF9
:1014C000DDF81C9007460E46284649463A46334604
:1014D00000F0B0FD00230022C3F6E07300F0F6FC3C
:1014E00000F06EFF8442C9D3804608BFA8F101080E
:1014F000404600F0A9FF3A46334601F077F802462D
:101500000B462846494601F06FF9002200230546A4
:101510000E4601F0DCFA002818BF86F00046284687
:1015200040F208193146C2F2000900F019FF06998D
:101530005546814288BF45460E9F88BF274628BF33
:10154000014606911E99C9F80000884298D88EE09D
:10155000DDE9112320463946C84601F047F8DDF899
:1015600040A04A46534600F065FD0646894600F015
:1015700027FF46F600210546C4F2F8010020224666
:101580003B4600F057FD02460B464046514600F0F0
:1015900051FD804628468B46039500F055FF0246D4
:1015A0000B4630464946CDE9093201F01DF9424665
:1015B0005B4601F01BF80023C3F6E073002200F045
:1015C00085FC22463B4600F035FD05460E4640466A
:1015D000594622463B4600F02DFD00F0F1FE8046C4
:1015E0002846314600F0ECFEB8F1000FBB4643D070
:1015F00001464346002900F00F818B4200F00C8128
:101600005A1A9CBF1A46C91A002A00F00381002901
:1016100018BF8A4231D0531A9CBF1346891A002B37
:1016200000F0F880002900F0F7808B421A4624D0A1
:101630005A1A9CBF1A46C91A002A00F0EB800029EA
:1016400018BF8A4219D0531A9CBF1346891A002B1F
:101650000A46CFD111E000BF0AF1010A5046CDF889
:101660000CA000F0F1FECDE9091000250227DDF8FD
:1016700040A0DDF834B025E00246B8FBF2F7B0FB3D
:10168000F2F5B7F5805F1DD3B7F5005F0CD3B7F562
:10169000804F0DD3B7F5004F0ED338092D09B7F59C
:1016A000803F0746F0D209E078086D0806E000BFE9
:1016B000B808AD0802E000BFF808ED08074685420B
:1016C00008BF013D284600F0BFFE04463846884664
:1016D00000F0BAFE0F9E02460B463046514600F01F
:1016E000A9FC2246434600F081FFDDE909320446A9
:1016F00088463046514600F079FF2246434600F0C6
:10170000E5FB059A5B4600F095FCDDE9112301F04D
:101710006BF80023C3F6E073002200F0D7FB00F063
:101720001FFE4FF20202002D08BF0227A7F58051CD
:10173000CFF6FF7240F208149142C2F2000420601A
:1017400006D24FF00708404613B0BDE8F08F00BF47
:10175000781E854206D94FF00808404613B0BDE810
:10176000F08F00BF75B903981021A0F58030CFF637
:10177000FF71884206D24FF00908404613B0BDE819
:10178000F08F00BF75B103984FF21701A0F6FC70FF
:10179000CFF6FF71884205D24FF00A08404613B0D9
:1017A000BDE8F08F029E8DB14FF28000C0F2FA20AA
:1017B00086420BD94FF00C08404613B0BDE8F08FBD
:1017C0004FF00D08404613B0BDE8F08F40F200091D
:1017D000C2F2000948F20001039AD9F80000C7F6E6
:1017E000FF7101EAC2316FF3DE0065F3CE010844F8
:1017F000A5B120F00040C9F80000D9E90101D9F8ED
:101800001020012363F35F7021F4807122F0807255
:1018100013E000BF0A4630E71A462EE740F00040CA
:10182000C9F80000D9E90101D9F81020042363F3B5
:101830005F7041F4807142F08072C9F8102044F664
:10184000000267F3CE0021F00041C0F2E8120B9BCA
:10185000964288BF01F10041C9E90101D9F80C00A5
:101860001D9D0C9A20F038003BB1182101EBC301FB
:1018700001F01801084340F020007AB16FF03F01F9
:1018800001EB82111C9AC9B220F4707002F00102BF
:10189000084440EA422000F5807001E020F4E07046
:1018A0000199090D61F31650C9F80C0000F034F8E5
:1018B000D4F80080B8F1FF3F0ADDFDB11E988045E5
:1018C0001CD94FF00E08404613B0BDE8F08F00BFA2
:1018D0001E9AC8F100000021904288BF01212940D2
:1018E00085F00102114318BF4046206018BF0E2149
:1018F0008846404613B0BDE8F08F00BFB8F1000F36
:1019000018BF4FF00E08002D18BF4FF000084046DA
:1019100013B0BDE8F08F000070B582B040F2000651
:10192000C2F20006306940F60004C4F2010400BAB5
:101930000190204610210122FEF75AFE0120FEF7F9
:101940002FFD204610210022FEF752FE40F2B00586
:10195000C2F2000501A9284604223223FFF768FAE3
:101960002846FFF7D9F90128FAD120461021012293
:10197000FEF73EFEF068102100BA019020460122D9
:10198000FEF736FE0120FEF70BFD20461021002257
:10199000FEF72EFE40F2B005C2F2000501A928466E
:1019A00004223223FFF744FA2846FFF7B5F901284D
:1019B000FAD1204610210122FEF71AFE4FF03060C6
:1019C0000190204610210122FEF712FE0120FEF7B1
:1019D000E7FC204610210022FEF70AFE40F2B00587
:1019E000C2F2000501A9284604223223FFF720FA9B
:1019F0002846FFF791F90128FAD12046102101224B
:101A0000FEF7F6FDB068102100BA019020460122D1
:101A1000FEF7EEFD0120FEF7C3FC20461021002258
:101A2000FEF7E6FD40F2B005C2F2000501A9284626
:101A300004223223FFF7FCF92846FFF76DF901284D
:101A4000FAD1204610210122FEF7D2FD7068102144
:101A500000BA019020460122FEF7CAFD0120FEF7E0
:101A60009FFC204610210022FEF7C2FD40F2B00587
:101A7000C2F2000501A9284604223223FFF7D8F953
:101A80002846FFF749F90128FAD120461021012202
:101A9000FEF7AEFD3068102100BA01902046012209
:101AA000FEF7A6FD0120FEF77BFC20461021002258
:101AB000FEF79EFD40F2B005C2F2000501A92846DE
:101AC00004223223FFF7B4F92846FFF725F901284D
:101AD000FAD1204610210122FEF78AFD02B070BD26
:101AE000FEE70000FEE70000704700002DE9F0412E
:101AF00082B01E4690460D460446FEF77FFD301A22
:101B000000EB0807FEF77AFD40F22001C2F2000167
:101B10000968C1F3CB317943019121688A682A4071
:101B2000AA4227D1064618F101001FD0FEF766FD34
:101B3000801BB84222D2019801990028A1F101012D
:101B400001912168896808BF074601EA0500A8429B
:101B5000ECD00FE088682840A8420BD18868284064
:101B6000A84207D188682840A84203D18868284045
:101B7000A842EFD0002002B0BDE8F081D4E9000116
:101B80004268B1F5827F22F0E00242600AD1A1688A
:101B9000B1F5004F02D0B1F5806F03D1016821F09B
:101BA00040010160A16AB1F5005F07D1016821F42D
:101BB00000510160016841F400510160012084F886
:101BC0005100002084F85000032002B0BDE8F081ED
:101BD0007047000080B540F2A400C2F20000FEF79A
:101BE0003FFDBDE88040FEF741BD000070470000AA
:101BF00080B540F6B830FEF7D3FB40F2A000C2F249
:101C00000000407842F6E861C0F6000101EBC00236
:101C100051F830005168BDE88040FFF70BBA000072
:101C20002DE9F04140F60004C4F20104FEF730FB58
:101C300040F2A002C2F20002107840F288080028A8
:101C4000C2F2000871D098F8000000286DD15178D8
:101C500000204B1C1070D8B242F6E861022888BF01
:101C60000023D8B2C0F6000101EBC00751F83000E4
:101C700079685370FFF7DEF9FEF7C0FC0546FEF702
:101C8000BDFC401BC0087C2813D804F5006600BFCB
:101C900030464FF400510122FEF7AAFC20460821ED
:101CA0000022FEF7A5FCFEF7A9FC401BB0F57A7FE9
:101CB000EED3FEF7A3FC0546FEF7A0FC401B40F662
:101CC000B731884214D804F5006640F6B83700BF33
:101CD00030464FF400510022FEF78AFC20460821CE
:101CE0000122FEF785FCFEF789FC401BB842EFD3CA
:101CF000FEF784FC0546FEF781FC401BC0087C28EB
:101D000013D804F5006600BF30464FF4005101229D
:101D1000FEF76EFC204608210022FEF769FCFEF764
:101D20006DFC401BB0F57A7FEED398F8001004F5F7
:101D3000006081F001024FF40051FEF759FC98F861
:101D4000002020460821BDE8F041FEF751BC00000C
:101D5000FEE7000090B0FEF797FC06AC201D2421A2
:101D6000FEF730FA0A200690012010210A90CDE9F2
:101D70000B10002520460D95FEF7F4FD20B1EFF382
:101D8000108072B6FEE700BF0F20CDE9010501A863
:101D90000021CDE903550595FEF704FD20B1EFF3D1
:101DA000108072B6FEE700BF41F21800C4F20200D4
:101DB000016840F6000941F0100101600168C4F2B9
:101DC000010901F0100106910699016809F5006604
:101DD00041F0200101600168002201F0200106911C
:101DE000069901684FF4005541F004010160006854
:101DF0004FF4005100F004000690069830464FF072
:101E00000008FEF7F5FB484618210022FEF7F0FB1C
:101E1000069506AD0127022430462946CDE907770D
:101E20000994FEF7D1FA0820CDE90607484629466D
:101E3000CDE90844FEF7C8FA1020CDE90607484668
:101E40002946CDE90874FEF7BFFA4020CDE906081F
:101E500048462946CDF82080FEF7B6FA40F2A405A0
:101E6000A9F55840C2F2000540F6FF71C5E9000827
:101E70002846A960FEF7C8FB20B1EFF3108072B6C8
:101E8000FEE700BF09F5205045F80C0F4FF48270B3
:101E9000C5E901080A204FF400712022E8622846B3
:101EA000C5E90388C5E90581C5E90728C5E90988A9
:101EB000FEF736FF20B1EFF3108072B6FEE700BFE9
:101EC000FFF796FEFFF7ACFE30BFFBE710B591EAD7
:101ED000030F48BF83F0004300F18E84841A71EB36
:101EE000030C05D2121943EB0C03001B61EB0C0130
:101EF0004FEA1154A4EB135CDFF81CE11EEA430F18
:101F000018BF9EEA445F00F0748021EA045123EA7E
:101F10000E0343F48013DCF1200E32D322FA0CFEC0
:101F200010EB0E0023FA0CFE41EB0E01CCF1200E5B
:101F300003FA0EFE10EB0E00CCF1200E51F1000161
:101F4000B1F5801F32D201EB045112FA0EF2BDE856
:101F5000104058BF7047401C38BF5FEA420218BFAC
:101F60007047002814BF20F0010041F100014FEA42
:101F7000410313F5001F38BF7047A1F1C04100F0C5
:101F80002DBC012A43EB0302ACF1200CDCF11F0E47
:101F900032BF4FF0000E23FA0CF310EB030041EBBD
:101FA0000451B4EB115FD0D0A1EB045101F58011C5
:101FB000490801EB04515FEA30000ED350F10000F4
:101FC00038BF12FA0EFE08D1BDE81040C9E7401C28
:101FD00038BF5FEA4202CAD1C3E7BDE810404FEA0A
:101FE000410313F5001F38BF7047A1F1C04100F055
:101FF000F5BB9EEA445F08D011EA5E0FBDE81040D1
:1020000004BF01F0004100207047BDE8104070B5EA
:1020100000F096FB64FBBE3E0000E0FF491058BF95
:10202000C1F140415B1058BFC3F140438B42EFF315
:10203000008070472DE9C04130B4DFF8A4C23CEA0B
:10204000111418BF3CEA131400F0ED801CEA1114BF
:1020500081EA030544EAD57418BF1CEA131500F0A1
:10206000C880A4EB050404F17F7404F500344FF03C
:10207000004545EAC12145EAC32341EA505143EAFC
:1020800052534FEAC0204FEAC222994208BF904201
:1020900000F09D804FEA13650FF24416765D4FEA1B
:1020A000134506FB05F7C7F1807706FB07F74FEAF4
:1020B000D737A7FB03687642A7FB06CEC8F5803862
:1020C00038BFA8F1010807FB08E6A6FB028C4FF019
:1020D000000EE6FB03CEDCF1000CCEF1004E38BF63
:1020E000AEF1010EA6FB0C584FF00007E6FB0E8781
:1020F000A1FB08C6A0FB07CE16EB0E064FF00005AD
:1021000045F10005E1FB076515F1E04E7EBFA4F542
:1021100080345FEA46066D4116F1800745F10005FF
:102120004FEA172747EA05674FEA15254FEA066683
:10213000A6F1DE46B6F1805F20D9384605EBC471C2
:1021400024F0010C01EB0C11BCF1FE6F02D8F0BCC5
:10215000BDE8008124425CBF01F5801E9EEAC47F79
:1021600002D4F0BCBDE80081244200F13980A1F125
:10217000C041F0BCBDE8004100F030BB4FEAD020C8
:1021800040EA41504FEAD1214FEAD22242EA43527B
:102190004FEAD323A7FB028607FB036605FB026613
:1021A0001EEA0E0F58BFA6EB0056B6EB00564FEADC
:1021B000520E4EEAC37E18EB0E0E56EB530EBCD5F4
:1021C00018EB02085E417F1C55F10005B5E74FF49E
:1021D00080154FF000074FF000064FF00008ACE705
:1021E00001F1C04101F000414FF00000F0BCBDE83A
:1021F00000810CEA131511EA0C1F00D00CE013EA61
:102200000C1F00F026804FF0000081EA030101F06E
:102210000041F0BCBDE80081F0BCBDE8004181EAAE
:10222000030100F0DBBAF0BCBDE8004170B500F07E
:1022300087FA00BF097EFC3E00F007B84FF00000AF
:1022400081EA030101F00041704781EA030100F0D7
:10225000C5BAF0BCBDE8004122494FF0000070470C
:10226000FFFDFBF9F7F5F4F2F0EEEDEBE9E8E6E45B
:10227000E3E1E0DEDDDBDAD8D7D5D4D3D1D0CFCDE2
:10228000CCCBCAC8C7C6C5C4C2C1C0BFBEBDBCBB1B
:10229000BAB9B8B7B6B5B4B3B2B1B0AFAEADACAB16
:1022A000AAA9A8A8A7A6A5A4A3A3A2A1A09F9F9EF0
:1022B0009D9C9C9B9A9999989797969595949393A2
:1022C000929191908F8F8E8E8D8C8C8B8B8A898939
:1022D00088888787868585848483838282818180BC
:1022E0000000FF070000F87F51EA030C17D41CF52B
:1022F000801F58BFBCF5801F00F10680994218BFAF
:10230000704708BF9042704707D711F5801F58BF2C
:1023100013F5801F19D499427047894270471CF504
:10232000801F08D5BCF5801FF7D58B4218BF7047BA
:1023300008BF824270474FF4001C1CEB410F38BFAE
:102340001CEB430F01D28B42704770B500F0F8F9D7
:10235000922449004FF000514FF08053FFF75EBECA
:102360004FEA41034FEA5353A3F58063D3F11E03B1
:10237000C8BFD3F1210C0CDD4FF0004242EAC1226C
:1023800042EA505232FA03FC8CEAE17CACEBE17099
:102390007047102BC4BF0020704703F5787CBCF158
:1023A000FF3F04D06FF0004282EA2100704770B511
:1023B00000F0C6F94992248000207047F2E700003F
:1023C0004FEA1153A3F58063D3F11E03A8BFD3F1E5
:1023D000200C08DB4FF0004242EAC12252EA505280
:1023E00032FA03F0704709420BD4102BC4BF00200F
:1023F000704703F5787CBCF1FF3F05D04FF0FF300C
:1024000070474FF00000704770B500F099F900BFB9
:102410004992248000207047F0E710F0004248BF46
:102420004042B0FA80F310FA03F10AD0C3F11D0361
:1024300003F5806302EB03524FEA415002EBD121D6
:1024400070474FF000007047B0FA80F310FA03F1C4
:102450000AD0C3F11D0303F580634FEA03524FEA2C
:10246000415002EBD12170474FF00000704700004F
:10247000B1FA81F30B3B20D3994010D1B0FA80F32D
:1024800010FA03F108BF7047C3F11D0303F5806321
:102490004FEAD1224FEA415002EB03517047C3F19A
:1024A000200C20FA0CFC41EA0C019840C3F13203E5
:1024B00003F5806301EB03517047C3F1320C0CF557
:1024C000806210B5C3F10004C4F1200E01FA0EFCC5
:1024D00021FA04F100FA0EF3E04040EA0C00BDE8F6
:1024E000104001EB025138BF7047401C41F1000120
:1024F0005B0008BF20F001007047000051EA030CA8
:1025000017D41CF5801F58BFBCF5801F00F1068052
:10251000994218BF704708BF9042704707D711F51E
:10252000801F58BF13F5801F19D499427047894204
:1025300070471CF5801F08D5BCF5801FF7D58B426E
:1025400018BF704708BF824270474FF4001C1CEB55
:10255000410F38BF1CEB430F01D28B42704770B55F
:1025600000F0EEF8922449004FF080514FF00053F4
:10257000FFF754BD51EA030C17D41CF5801F58BF58
:10258000BCF5801F00F10680994218BF704708BF54
:102590009042704707D711F5801F58BF13F5801F71
:1025A00019D499427047894270471CF5801F08D59D
:1025B000BCF5801FF7D58B4218BF704708BF824219
:1025C00070474FF4001C1CEB410F38BF1CEB430F4E
:1025D00001D28B42704770B500F0B2F892244900E6
:1025E0004FF000514FF08053FFF718BD70B5DFF882
:1025F00048C11CEA111E1EBF1CEA13159EEA0C0FEF
:1026000095EA0C0F00F06F8081EA03044EEAD47E55
:10261000AE4421EA4C1123EA4C1341F4801143F4F7
:102620008013AEF17F7EA1FB024CA0FB036536193F
:1026300055EB0C05A1FB034C4CF10003A0FB021C65
:1026400016EB0C06654153F10003094218BF46F032
:10265000010613F4007F0BD14FEA03314FEA053036
:1026600041EA155140EA165034036FF003020AE0C4
:102670004FEAC3214FEAC52041EA555140EA56507E
:10268000F4026FF0020202EB2E4201EB025585EAE2
:10269000CE710AD05FEA440C18BF24F0004450F118
:1026A000000041F1000120EAD47040F2FE7C624556
:1026B00000D270BDA84214BF4FF080444FF0404498
:1026C000002E08BF0024BEF1806FA8BFA1F1C04159
:1026D000BDE8704080F2828001F1C04101F000410C
:1026E0004FF0000070470CEA13159EEA0C0F18BF5C
:1026F00095EA0C0F06D081EA030E4FF000000EF0B1
:10270000004170BD00F01CF88900013E00F007B8E0
:1027100000F009B84FEA430C5FEA5C5C08D081EA3C
:10272000030100F05BB84FEA410C5FEA5C5CF6D154
:1027300002494FF0000070470000FF070000F87FDB
:102740000EF1020E2EF0030E5EF8046B364205D435
:10275000012A43EB030515F5001F12D8012841EBB0
:10276000010C1CF5001F0CD80ED14FEAD17C0CEBEC
:102770004C0C0CF1020C15F5001F08BF4CEBD37C80
:1027800004E04FF0080C01E04FEAD37C0CEB4C0561
:1027900026FA05F606F00706B6F1040C06D20EEB93
:1027A000860CBDE870404CF0010C6047DFE80CF08F
:1027B000090B02024FF00041A1F500214FF000008B
:1027C00070BD19461046012851EB010418BFD4F51D
:1027D000001484BF002001F0004170BD0808A0F57E
:1027E00000114FEA3101704710B591EA030F48BF5D
:1027F00083F000433FF572AB841A71EB030C07D2F0
:102800008CF0004C121943EB0C03001B61EB0C0124
:102810004FEA1154A4EB135CDFF8A4E11EEA430F66
:1028200018BF9EEA445F00F0B48021EA045123EA15
:102830006E035242C3EB6E0338BF5B1EDCF1200E09
:1028400025D322FA0CFE10EB0E0043FA0CFE41EBEE
:102850000E01CCF1200E03FA0EFE10EB0E00CCF1AF
:10286000200E51F1000129D401EB045112FA0EF2AD
:10287000BDE8104058BF7047401C1CBFB2F1004F6C
:10288000704700280CBF491C20F00100704712EB74
:10289000020E43EB030218BF4FF0010E4EEA420254
:1028A000ACF1200CDCF11E0E56D943FA0CFE10EBF5
:1028B0000E00CCF11E0E51F1FF31D5D50EF1010EF7
:1028C00012FA0EFE404141EB010101EB445C5FEA6C
:1028D0005C5C10D901EB045110EBDE7038BFBEF127
:1028E000004FBDE8104018BF704700280CBF491CBE
:1028F00020F00100704734D24FEAD42C24F4006455
:1029000011F500111BD0B1FA81F20B3AA41AA41EE2
:10291000D2F12003914030FA03F31943904001EBC8
:10292000CC7101EB0451002CBDE81040A8BF7047EA
:1029300001F1C04101F000414FF000007047B0FAD2
:1029400080F310FA03F102D1BDE810407047E41A99
:10295000173C4805C90AE2E701EB0451BDE8104005
:10296000704749104FEA300001EB0451BDE81040B8
:1029700002E04FF0000170474A0008BF0042F8D063
:10298000B2F5001F28BF704701F000414FF0000072
:1029900070479EEA445F07D011EA5E0FBDE8104021
:1029A00004BF002100207047BDE8104070B5FFF75C
:1029B000C7FE00BF40DFF63E104683F0004170477F
:1029C0000000E0FF90EA010F48BF81F0004100F1F4
:1029D000EA80421A3CBF801A89184FEAD052A2EB13
:1029E000D1534FF07F4C1CEA410F18BF9CEA026F95
:1029F00000F03B804FF0004C4CEA00204CEA0121F3
:102A000021FA03FC10EB0C0C1ED202F1FF325FEA3C
:102A10001C2040EBC25038BF70471CF07F0F4FEABC
:102A2000400C18BFBCF17F4F38BF7047C3F1200383
:102A3000994008BF20F00100BCF17F4F38BF7047BC
:102A4000A0F1C04000F0A3B84FEA3C00000A40EB00
:102A5000C25028BF1CF0FF0F4FEA400CE6D018BF51
:102A6000BCF17F4F38BF7047EAE79CEA026F05D0A0
:102A700010EA5C0F08BF00F00040704710B500F08E
:102A800040F800BF64FBBE3E10B5FFF72DFC0CBF45
:102A90000120002010BD10B5FFF726FC14BF012057
:102AA000002010BD10B5FFF729FD8CBF01200020CC
:102AB00010BD10B5FFF722FD2CBF0120002010BD76
:102AC00010B5FFF757FD94BF0120002010BD10B5D1
:102AD000FFF750FD34BF0120002010BDB0FA80F395
:102AE00010FA03F2C3F19D030AD0D90501EB1220BD
:102AF000530638BF704700F1010008BF20F0010005
:102B000070470EF1020E2EF0030E5EF8044B2442C5
:102B100004D44FEA4102B2F17F4F11D84FEA40038B
:102B2000B3F17F4F0CD80ED14FEAD07C0CEB4C0C9C
:102B30000CF1020CB2F17F4F08BF4CEBD17C04E0EA
:102B40004FF0080C01E04FEAD17C0CEB4C0324FA67
:102B500003F404F00704B4F1040C06D20EEB840C69
:102B6000BDE810404CF0010C6047DFE80CF00708AE
:102B700002024FF00040A0F5800010BD0846420060
:102B800018BFD2F1807288BF00F0004010BDFF2155
:102B900041EAD050C005704790EA010F48BF81F06C
:102BA00000413FF516AF421A04D882F00042A0EB74
:102BB000020011444FEAD052A2EBD1534FF07F4CA8
:102BC0001CEA410F18BF9CEA026F4AD04FF0004C3C
:102BD0004CEA00204CEA012121FA03FCB0EB0C0C7A
:102BE0000FD412F0FE0F36D05FEA4C001DD5001254
:102BF00040EBC25038BF70471CF03F0F18BF704702
:102C00000BE05FEA1C20A2F1010240EBC25038BF8A
:102C100070471CF07F0F18BF7047C3F12003994025
:102C200014BF401E20F0010070474FEA12238008B5
:102C300008BF7047B0FA80FCA2EB0C02CCF1280C64
:102C400060FA0CF093EA122F04BF00EBC2507047F9
:102C50004FEAC3707047130A5FEADC1008BF704781
:102C6000F6E79CEA026F04D010EA5C0F08BF002070
:102C7000704710B5FFF745FF40DFF63E81F000409A
:102C8000704700000A154FEAC12343EA50534FEA48
:102C9000C02C18BF43F000431BD4A2F24E02D2F561
:102CA0007C72C0F22080502AA8BF502223FA02F181
:102CB0002CFA02F0D2F1200260B484BF03FA02F5CC
:102CC0002843C2F100029CBF23FA02F5284360BCEE
:102CD000704701F1804212F5801F04DA4FF00000C6
:102CE0004FF00001704770B5FFF72AFD499224802C
:102CF000002001E06FEAE17001467047C2154FEA1B
:102D0000002318BF43F000430ED4D2F1BE0215D306
:102D100023FA02F1B2F1200C2EBF23FA0CF0C2F11B
:102D2000200C03FA0CF070474FEA400CBCF1FE4F48
:102D300004D24FF000004FF00001704710B5FFF7CC
:102D4000E0FE00BF922449804FF000010020704750
:102D50006FEAE0700146704701020000242F00086E
:102D6000102F0008102F00084D2F0008102F00080A
:102D7000102F0008102F0008622F0008382F0008BD
:102D8000102F0008102F00082B2F0008552F0008C7
:102D90003F2F0008752F0008122F0008182F000879
:102DA0001E2F0008322F0008562F0008A62F0008FB
:102DB000A02F0008942F0008812F00085C2F000826
:102DC000932F0008102F00086F2F0008102F000805
:102DD000462F0008872F0008682F0008592F000889
:102DE0009B2F0008702F00088F2F0008AA2F0008C3
:102DF0007C2F0008642F0008A72F0008A92F0008C7
:102E00001F2F0008492F00088E2F0008352F0008BB
:102E10007E2F0008202F0008632F00083A2F00089B
:102E20007D2F0008A82F00085A2F0008582F0008EF
:102E3000572F0008342F0008502F0008262F0008B5
:102E4000892F0008102F0008102F0008102F0008ED
:102E5000102F00089A2F0008102F0008102F0008CC
:102E6000102F0008102F0008102F0008102F000846
:102E7000102F0008102F0008102F0008102F000836
:102E8000102F0008102F0008102F0008102F000826
:102E9000102F0008102F0008102F0008102F000816
:102EA000102F0008102F0008102F0008102F000806
:102EB000102F0008102F0008102F0008102F0008F6
:102EC000102F0008102F0008102F0008102F0008E6
:102ED0007B2F000800000000000000000102030436
:102EE00006070809000000003C109C0800000000D4
:102EF000D0A9C61900000000A01F4D4D0000000021
:102F000002030405060708090A0B0C0D0E0F10102A
:102F100020002D2D2D2D2D002E2D2D2D2D002E2E72
:102F20002D2D2D002D2E2D2E2D2D002D2D2E2E2D27
:102F30002D002E2E2E2D2D002D2E2D2D2E2D002E42
:102F40002D2E2D2E2D002E2E2E2D2E2D002E2E2E02
:102F50002D2E2E2D002D2E2E2E2E2D002D2D2D2DF5
:102F60002E002D2E2D2D2E002E2D2D2E2D2E002E11
:102F70002D2E2D2E002D2E2E2D2E002E2E2E2D2ED2
:102F8000002D2D2D2E2E002E2E2D2D2E2E002E2DF1
:102F90002E2E002D2D2D2E2E2E002E2D2E2E2E00DF
:102FA0002D2E2E2E2E002E2E2E2E2E00D02F00084F
:102FB000000000202800000028010008F82F000869
:102FC00028000020E8040000440100080000000080
:102FD00000007D00F9FF0020426E00183CB28061C5
:102FE00005004000809698000100000010000000DD
:082FF0000024F40000000000C1
:04000005080000ED02
:00000001FF
